:100000000C945D000C9485000C9485000C94850084
:100010000C9485000C9485000C9485000C9485004C
:100020000C9485000C9485000C9485000C9485003C
:100030000C9485000C9485000C9485000C9485002C
:100040000C94DF030C9485000C944F040C94290449
:100050000C9485000C9485000C9485000C9485000C
:100060000C9485000C94850000000008000201003B
:100070000003040700000000000000000000000072
:10008000250028002B0000000000240027002A0083
:10009000040404040404040402020202020203032E
:1000A0000303030301020408102040800102040836
:1000B0001020010204081020810411241FBECFEF7C
:1000C000D8E0DEBFCDBF21E0AAE1B1E001C01D92C2
:1000D000A43FB207E1F711E0A0E0B1E0E6E0F2E111
:1000E00002C005900D92AA31B107D9F710E0CDE515
:1000F000D0E004C02197FE010E94FF06CC35D10755
:10010000C9F70E941A050C9401090C94000090E0B4
:10011000FC01EC55FF4F2491FC01E057FF4F849107
:10012000882399F090E0880F991FFC01EA57FF4F50
:10013000A591B491FC01E458FF4F859194918FB73C
:10014000F894EC91E22BEC938FBF089590E0FC01C2
:10015000E859FF4F2491FC01EC55FF4F3491FC010D
:10016000E057FF4FE491EE2309F43CC0222339F11C
:10017000233091F038F42130A9F0223001F584B514
:100180008F7D12C0273091F02830A1F02430B9F4CF
:10019000809180008F7D03C0809180008F77809355
:1001A00080000DC084B58F7784BD09C08091B000F8
:1001B0008F7703C08091B0008F7D8093B000F0E016
:1001C000EE0FFF1FE458FF4FA591B4919FB7F8942D
:1001D000611104C08C913095382302C0EC913E2B04
:1001E0003C939FBF0895CF93DF9360E08CE00E9423
:1001F000A60060E088E00E94A600C7E0D0E060E0D2
:1002000084E00E94A6008091E60190E00C2E02C0DE
:10021000959587950A94E2F780FF02C061E001C0DE
:1002200060E088E00E94A60061E084E00E94A600F1
:10023000219728F761E08CE0DF91CF910C94A60024
:100240008CE00E94870087E00E94870088E00E947F
:10025000870084E00E9487001092E6010E94F3006C
:1002600060E087E00C94A600CF92DF92EF92FF92BD
:100270000F931F93CF93DF936C017A018B01C0E042
:10028000D0E0CE15DF0581F0D8016D918D01D6014A
:10029000ED91FC910190F081E02DC6010995892B2B
:1002A00011F02196EECF7E01C701DF91CF911F9112
:1002B0000F91FF90EF90DF90CF900895089580E028
:1002C00090E00895FC01538D448D252F30E0842F5C
:1002D00090E0821B930B541710F0CF96089501976E
:1002E0000895FC01918D828D981761F0828DDF0158
:1002F000A80FB11D5D968C91928D9F5F9F73928F19
:1003000090E008958FEF9FEF0895FC01918D828D0D
:10031000981731F0828DE80FF11D858D90E00895DA
:100320008FEF9FEF0895FC01918D228D892F90E032
:10033000805C9F4F821B91098F739927089589E4F0
:1003400091E00E94930121E0892B09F420E0822FA3
:100350000895FC01848DDF01A80FB11DA35ABF4F82
:100360002C91848D90E001968F739927848FA689B4
:10037000B7892C93A089B1898C9180648C93938DDB
:10038000848D981306C00288F389E02D80818F7DCB
:1003900080830895EF92FF920F931F93CF93DF9383
:1003A000EC0181E0888F9B8D8C8D981305C0E889C6
:1003B000F989808185FD24C0F62E0B8D10E00F5F3A
:1003C0001F4F0F731127E02E8C8DE8120CC00FB653
:1003D00007FCFACFE889F989808185FFF5CFCE0146
:1003E0000E94A901F1CF8B8DFE01E80FF11DE35AA8
:1003F000FF4FF0820B8FEA89FB898081806207C002
:10040000EE89FF896083E889F9898081806480832F
:1004100081E090E0DF91CF911F910F91FF90EF90DD
:100420000895CF93DF93EC01888D8823C9F0EA8982
:10043000FB89808185FD05C0A889B9898C9186FDDD
:100440000FC00FB607FCF5CF808185FFF2CFA889DA
:10045000B9898C9185FFEDCFCE010E94A901E7CF2C
:10046000DF91CF910895CF93DF93C1E0DFE189E47D
:1004700091E00E94930120911B01181619060CF5BA
:1004800021111FC089E491E00E947101E0911A01DD
:100490008E3371F0AE2FB0E0A45EBE4F8C93EF5F51
:1004A000E03218F4E0931A01E2CFD0931A01DFCFC3
:1004B000F0E0E45EFE4F108210921A01C0931B011F
:1004C000D6CF211110921B01DF91CF9108950E9488
:1004D0009F0181110C9433020895FC0180818230C8
:1004E00061F018F4813031F00895833049F08430A0
:1004F00049F008956093B30008956093B40008959F
:1005000067BD089568BD0895FC018081823049F07F
:1005100018F4813079F00895833031F0843039F067
:10052000089524E031E008C027E035E005C026E06A
:1005300030E002C023E032E06230A9F0643029F1FB
:100540006130B9F581E090E0AC0101C0440F3A950B
:10055000EAF73091E601432B01C0880F2A95EAF7AC
:100560008095842322C081E090E0AC0101C0440F5B
:100570003A95EAF7342F30954091E601342301C0D3
:10058000880F2A95EAF7832B10C041E050E0CA019A
:1005900001C0880F3A95EAF701C0440F2A95EAF79F
:1005A000842B80959091E60189238093E6010C9439
:1005B000F30008950E94EC08EF92FF920F931F93AF
:1005C000CF93DF93EC017B018A01888199810097A9
:1005D00029F02A813B8124173507F8F4B8016F5FB1
:1005E0007F4F0E942608009759F0998388831B83C8
:1005F0000A832C813D81232B81F4FC0110820DC0E4
:1006000088819981009711F00E949D0719821882B4
:100610001D821C821B821A8207C01D830C83B701B6
:10062000888199810E94FA08CE01DF91CF911F91B4
:100630000F91FF90EF900895FC01118210821382B8
:100640001282158214826115710551F0FB0101902F
:100650000020E9F73197AF01461B570B0C94DC02E1
:1006600008956F927F928F929F92AF92BF92CF9296
:10067000DF92EF92FF920F931F93CF93DF93EC01E2
:100680008B01DB011496AD90BC901597D5011197A5
:1006900020E030E08FEF9FEFE12CF12C60E070E084
:1006A000922E832EA217B30794F14617570744F4EE
:1006B0005C0167018E159F0598F56C01570130C0EC
:1006C000F90131966F012A153B0560F4F80160804D
:1006D00071806114710431F0F301E20FF31FE081C6
:1006E000EA3331F0A217B30719F0982E892E0BC008
:1006F0006F5F7F4F7C01FFEFEF1AFF0AA217B3076E
:1007000011F49C2C8D2C9601892D982DC9CF46175C
:10071000570774F268E171E0CE010E941C033FC0EC
:1007200068E171E0CE010E941C03D8011496ED909F
:10073000FC901597CE14DF0490F5AE14BF0408F4B6
:100740007501D801ED91FC911197EE0DFF1DB08060
:1007500010826D917C916C0D7D1D6115710561F0AC
:10076000FB0101900020E9F73197AF01461B570BC1
:10077000CE010E94DC020CC088819981009711F0A3
:100780000E949D07198218821D821C821B821A8278
:10079000F80180819181FC01EE0DFF1DB082CE0138
:1007A000DF91CF911F910F91FF90EF90DF90CF904D
:1007B000BF90AF909F908F907F906F9008951F9201
:1007C0000F920FB60F9211242F933F938F939F9305
:1007D000AF93BF938091450190914601A09147014D
:1007E000B09148013091440123E0230F2D3720F4CC
:1007F0000196A11DB11D05C026E8230F0296A11D7B
:10080000B11D209344018093450190934601A0932C
:100810004701B09348018091400190914101A0911E
:100820004201B09143010196A11DB11D8093400189
:1008300090934101A0934201B0934301BF91AF91C6
:100840009F918F913F912F910F900FBE0F901F900E
:1008500018951F920F920FB60F9211242F933F936A
:100860004F935F936F937F938F939F93AF93BF93B8
:10087000EF93FF9389E491E00E94A901FF91EF912A
:10088000BF91AF919F918F917F916F915F914F91A8
:100890003F912F910F900FBE0F901F9018951F92B0
:1008A0000F920FB60F9211242F938F939F93EF9374
:1008B000FF93E0915901F0915A018081E0915F012D
:1008C000F091600182FD12C09081809162018F5F82
:1008D0008F7320916301821751F0E0916201F0E083
:1008E000E75BFE4F958F8093620101C08081FF918D
:1008F000EF919F918F912F910F900FBE0F901F90AE
:100900001895EF92FF920F931F93CF93E9E4F1E0D4
:100910001382128288EE93E0A0E0B0E08483958396
:10092000A683B7838AE091E09183808385EC90E091
:100930009587848784EC90E09787868780EC90E0A9
:10094000918B808B81EC90E0938B828B82EC90E09A
:10095000958B848B86EC90E0978B868B118E128E14
:10096000138E148E1092E701EEEEF1E0C2E0C08328
:10097000C1830E9420018091E6018D7E8093E60173
:100980000E94F30000EB10E0F80180818362808315
:1009900081EBE82EF12CF701C0831092B40083E0C4
:1009A0000E948700ECEEF1E081E08083C1830E9429
:1009B00020018091E601837F8093E6010E94F3008D
:1009C000F801808183688083F701C0831092B300AF
:1009D0008BE00E948700EAEEF1E083E08083C18330
:1009E0000E9420018091E6018F758093E6010E94AC
:1009F000F30084B5836884BD17BC86E00E9487003D
:100A0000E8EEF1E084E08083C1830E9420018091C0
:100A1000E6018E7B8093E6010E94F30084B5836239
:100A200084BD18BC85E0CF911F910F91FF90EF908E
:100A30000C948700CF93DF93CDB7DEB762970FB6E4
:100A4000F894DEBF0FBECDBF789484B5826084BDBC
:100A500084B5816084BD85B5826085BD85B58160C2
:100A600085BD80916E00816080936E001092810040
:100A700080918100826080938100809181008160FB
:100A800080938100809180008160809380008091BC
:100A9000B10084608093B1008091B0008160809348
:100AA000B00080917A00846080937A0080917A000F
:100AB000826080937A0080917A00816080937A00CE
:100AC00080917A00806880937A001092C100E09152
:100AD0005901F0915A0182E08083E0915501F09133
:100AE00056011082E0915701F091580180E1808316
:100AF00010926101E0915D01F0915E0186E08083DA
:100B0000E0915B01F0915C01808180618083E091E4
:100B10005B01F0915C01808188608083E0915B01E2
:100B2000F0915C01808180688083E0915B01F091AD
:100B30005C0180818F7D808368EC8EEE91E00E9465
:100B40006D0268EC8CEE91E00E946D0268EC8AEE1A
:100B500091E00E946D0268EC88EE91E00E946D02C7
:100B600064E08EEE91E00E94840264E08CEE91E0FD
:100B70000E94840264E08AEE91E00E94840264E0B4
:100B800088EE91E00E9484026CE171E0CE010D9646
:100B90000E941C0318861F821A8619861C861B86D3
:100BA0006D857E856115710531F049895A89CE01BF
:100BB00007960E94DC0240E050E0BE01695F7F4F73
:100BC000CE0101960E943103E980FA80E114F1041C
:100BD00021F0C7010E948C0603C060E070E0CB01E9
:100BE0008B0170933D0160933C01C7010E949D07FA
:100BF0008F8198850E949D0718861F821A86198604
:100C00001C861B866D857E856115710531F04989CD
:100C10005A89CE0107960E94DC0241E050E0BE01F5
:100C2000695F7F4FCE0101960E94310389809A80CF
:100C30008114910431F0C4010E948C066B017C0187
:100C400003C0C12CD12C7601D0923F01C0923E014D
:100C5000C4010E949D078F8198850E949D078D8504
:100C60009E850E949D071C141D045CF461E08CEEBF
:100C700091E00E94840261E088EE91E00E9484028B
:100C800011C062E08CEE91E00E94840262E088EE86
:100C900091E00E948402D194C194D108D0923F0186
:100CA000C0923E01101611065CF461E08EEE91E0F8
:100CB0000E94840261E08AEE91E00E94840211C0E9
:100CC00062E08EEE91E00E94840262E08AEE91E0A2
:100CD0000E94840211950195110910933D01009322
:100CE0003C0100913E01602F8CEE91E00E946D026C
:100CF00010913C01612F8EEE91E00E946D02602FF9
:100D000088EE91E00E946D02612F8AEE91E00E94D0
:100D10006D020E94670238CF1F93FC019927882734
:100D2000BC01E89411911032E9F3193010F01E3033
:100D3000C8F31B3251F01D3249F4689406C00E947A
:100D4000B306610F711D811D911D119110531A3051
:100D5000B0F33EF490958095709561957F4F8F4FDD
:100D60009F4F1F910895592F482F372F262F660F19
:100D7000771F881F991F660F771F881F991F620FA3
:100D8000731F841F951F660F771F881F991F089573
:100D90002F923F924F925F926F927F928F929F928B
:100DA000AF92BF92CF92DF92EF92FF920F931F9379
:100DB000CF93DF93CDB7DEB7CA1BDB0B0FB6F8942A
:100DC000DEBF0FBECDBF09942A88398848885F846A
:100DD0006E847D848C849B84AA84B984C884DF80DB
:100DE000EE80FD800C811B81AA81B981CE0FD11DBF
:100DF0000FB6F894DEBF0FBECDBFED010895EE0F24
:100E0000FF1F0590F491E02D09940F931F93CF934A
:100E1000DF938230910510F482E090E0E091F201DE
:100E2000F091F30120E030E0A0E0B0E0309719F15C
:100E3000408151810281138148175907C8F08417F6
:100E4000950769F4109731F012960C931297139648
:100E50001C9327C00093F2011093F30122C02115C7
:100E6000310519F04217530718F49A01BD01EF013B
:100E7000DF01F801DBCF21153105F9F0281B390B13
:100E80002430310580F48A819B816115710521F040
:100E9000FB019383828304C09093F3018093F2015A
:100EA000FE01329644C0FE01E20FF31F819391933D
:100EB00022503109398328833AC02091F0013091C2
:100EC000F101232B41F42091020130910301309371
:100ED000F1012093F00120910001309101012115D1
:100EE000310541F42DB73EB7409104015091050101
:100EF000241B350BE091F001F091F101E217F307AB
:100F0000A0F42E1B3F0B2817390778F0AC014E5F79
:100F10005F4F2417350748F04E0F5F1F5093F101C4
:100F20004093F0018193919302C0E0E0F0E0CF01A3
:100F3000DF91CF911F910F910895CF93DF93009789
:100F400009F481C0FC01329713821282A091F20150
:100F5000B091F301109781F420813181820F931FAA
:100F60002091F0013091F1012817390751F5F093E4
:100F7000F101E093F00167C0ED0120E030E0CE1711
:100F8000DF0740F44A815B819E0141155105F1F074
:100F9000EA01F5CFD383C28340815181840F951F2D
:100FA000C817D90759F488819981840F951F029633
:100FB000918380838A819B8193838283211531056C
:100FC00029F4F093F301E093F2013DC0E901FB83C2
:100FD000EA8349915991C40FD51FEC17FD0761F4BD
:100FE00080819181840F951F0296E90199838883FE
:100FF000828193819B838A83E0E0F0E012968D9159
:101000009C911397009719F0FD01DC01F7CF8D91AA
:101010009C9111979D012E5F3F4F820F931F20914E
:10102000F0013091F1012817390769F4309729F45C
:101030001092F3011092F20102C013821282B09357
:10104000F101A093F001DF91CF910895A0E0B0E00D
:10105000ECE2F8E00C94CC06EC01009721F4CB0113
:101060000E940507B4C0FC01E60FF71F9C01225047
:101070003109E217F30708F4A8C0D9010D911C91BA
:10108000119706171707B0F00530110508F49BC03B
:10109000C80104978617970708F495C002501109F4
:1010A000061B170B019311936D937C93CF010E9444
:1010B0009D0789C05B01A01AB10A4C01800E911EE8
:1010C000A091F201B091F301612C712CE12CF12C73
:1010D000109709F446C08D919C911197A815B905F8
:1010E000B1F56C0142E0C40ED11CCA14DB0478F1E6
:1010F0004C018A189B08640142E0C40ED11C129670
:10110000BC9012971396AC91B5E0CB16D10440F089
:10111000B282A38391828082D9016D937C9309C0AE
:101120000E5F1F4F800F911FF90191838083EB2D7C
:10113000FA2FE114F10431F0D7011396FC93EE93EA
:10114000129741C0F093F301E093F2013CC068169E
:10115000790608F43C017D0112960D90BC91A02DFA
:10116000B7CF8091F0019091F10188169906E1F4D2
:1011700066167706C8F480910001909101010097EE
:1011800041F48DB79EB74091040150910501841B35
:10119000950BE817F907C8F4F093F101E093F0011B
:1011A000F901718360830FC0CB010E9405077C01A8
:1011B000009759F0A801BE010E94F108CE010E94DB
:1011C0009D07C70104C0CE0102C080E090E0CDB70A
:1011D000DEB7EEE00C94E80681E090E0F8940C9421
:1011E0000109FB01DC0102C001900D924150504009
:1011F000D8F70895FB01DC0101900D920020E1F782
:061200000895F894FFCFF1
:101206000000F401800000000000CA013401620100
:0A121600110293017101850100002F
:00000001FF
